{
  "transactions": [
    {
      "hash": "0x560123ede4ac1de28f5c07c1b2e6cdca63ff63a60a042c686192472904c704a8",
      "transactionType": "CALL",
      "contractName": null,
      "contractAddress": "0x80d32f6004f51b65d89abecf0f744d22f491306f",
      "function": "approve(address,uint256)",
      "arguments": [
        "0x016946831AEfe6C3998f28957b902afFBC7FE75e",
        "100000000"
      ],
      "transaction": {
        "from": "0xf925ec96b9f19ee665b76c0cb847a230992d6948",
        "to": "0x80d32f6004f51b65d89abecf0f744d22f491306f",
        "gas": "0x10657",
        "value": "0x0",
        "input": "0x095ea7b3000000000000000000000000016946831aefe6c3998f28957b902affbc7fe75e0000000000000000000000000000000000000000000000000000000005f5e100",
        "nonce": "0x661",
        "chainId": "0x530"
      },
      "additionalContracts": [],
      "isFixedGasLimit": false
    },
    {
      "hash": "0xbd79419b21278b4ffd2e363d3717c50b9a968de83919cd03029183e395632190",
      "transactionType": "CALL",
      "contractName": null,
      "contractAddress": "0x016946831aefe6c3998f28957b902affbc7fe75e",
      "function": "depositToMarket(address,uint256,uint256)",
      "arguments": [
        "0xf925EC96b9F19EE665b76c0cB847a230992d6948",
        "1",
        "100000000"
      ],
      "transaction": {
        "from": "0xf925ec96b9f19ee665b76c0cb847a230992d6948",
        "to": "0x016946831aefe6c3998f28957b902affbc7fe75e",
        "gas": "0x21dfe",
        "value": "0x0",
        "input": "0xb5e23d21000000000000000000000000f925ec96b9f19ee665b76c0cb847a230992d694800000000000000000000000000000000000000000000000000000000000000010000000000000000000000000000000000000000000000000000000005f5e100",
        "nonce": "0x662",
        "chainId": "0x530"
      },
      "additionalContracts": [],
      "isFixedGasLimit": false
    },
    {
      "hash": "0x0b54e3e3ecdad6bc5704563ec2f459f0334d94e10280a9fe57b13f2673ac16f8",
      "transactionType": "CALL",
      "contractName": null,
      "contractAddress": "0x016946831aefe6c3998f28957b902affbc7fe75e",
      "function": "createProposal(uint256,bytes)",
      "arguments": [
        "1",
        "0x0000000000000000000000000000000000000000000000000000000000000020000000000000000000000000000000000000000000000000000000000000000d546573742050726f706f73616c00000000000000000000000000000000000000"
      ],
      "transaction": {
        "from": "0xf925ec96b9f19ee665b76c0cb847a230992d6948",
        "to": "0x016946831aefe6c3998f28957b902affbc7fe75e",
        "gas": "0x4f7071",
        "value": "0x0",
        "input": "0x2d0b97be0000000000000000000000000000000000000000000000000000000000000001000000000000000000000000000000000000000000000000000000000000004000000000000000000000000000000000000000000000000000000000000000600000000000000000000000000000000000000000000000000000000000000020000000000000000000000000000000000000000000000000000000000000000d546573742050726f706f73616c00000000000000000000000000000000000000",
        "nonce": "0x663",
        "chainId": "0x530"
      },
      "additionalContracts": [
        {
          "transactionType": "CREATE",
          "address": "0x38932a93c92b25d001ae14cca8313e1e5dd2e2cd",
          "initCode": "0x60806040523461033957610f856020813803918261001c8161033d565b93849283398101031261033957516001600160a01b038116810361033957610044604061033d565b90600c82526b5669727475616c205553444360a01b6020830152610068604061033d565b6004815263159554d160e21b602082015282519091906001600160401b03811161024a57600354600181811c9116801561032f575b602082101461022c57601f81116102cc575b506020601f821160011461026957819293945f9261025e575b50508160011b915f199060031b1c1916176003555b8151916001600160401b03831161024a57600454600181811c91168015610240575b602082101461022c57601f81116101c9575b50602090601f84116001146101615761014693915f9183610156575b50508160011b915f199060031b1c191617600455610362565b50604051610b57908161040e8239f35b015190505f8061012d565b90601f1984169160045f52815f20925f5b8181106101b15750916001939186610146979410610199575b505050811b01600455610362565b01515f1960f88460031b161c191690555f808061018b565b92936020600181928786015181550195019301610172565b60045f527f8a35acfbc15ff81a39ae7d344fd709f28e8600b4aa8c65c6b64bfe7fe36bd19b601f850160051c81019160208610610222575b601f0160051c01905b8181106102175750610111565b5f815560010161020a565b9091508190610201565b634e487b7160e01b5f52602260045260245ffd5b90607f16906100ff565b634e487b7160e01b5f52604160045260245ffd5b015190505f806100c8565b601f1982169060035f52805f20915f5b8181106102b45750958360019596971061029c575b505050811b016003556100dd565b01515f1960f88460031b161c191690555f808061028e565b9192602060018192868b015181550194019201610279565b60035f527fc2575a0e9e593c00f959f8c92f12db2869c3395a3b0502d05e2516446f71f85b601f830160051c81019160208410610325575b601f0160051c01905b81811061031a57506100af565b5f815560010161030d565b9091508190610304565b90607f169061009d565b5f80fd5b6040519190601f01601f191682016001600160401b0381118382101761024a57604052565b6001600160a01b0381165f9081525f80516020610f65833981519152602052604090205460ff16610408576001600160a01b03165f8181525f80516020610f6583398151915260205260408120805460ff191660011790553391907f9f2df0fed2c77648de5860a4cc508cd0818c85b8b8a1ab4ceeef8d981c8956a6907f2f8788117e7eff1d82e926ec794901d17c78024a50270940304540a733656f0d9080a4600190565b505f9056fe6080806040526004361015610012575f80fd5b5f3560e01c90816301ffc9a7146107515750806306fdde031461067f578063095ea7b3146105d757806318160ddd146105ba57806323b872dd14610582578063248a9ca31461055c5780632f2ff15d1461052b578063313ce5671461051057806336568abe146104cc57806340c10f19146103f157806342966c68146103d457806370a082311461039d57806379cc67901461036d57806391d148541461032457806395d89b4114610209578063a217fddf146101ef578063a9059cbb146101be578063d539139314610184578063d547741f1461014c5763dd62ed3e146100f8575f80fd5b34610148576040366003190112610148576101116107ce565b6101196107e4565b6001600160a01b039182165f908152600160209081526040808320949093168252928352819020549051908152f35b5f80fd5b346101485760403660031901126101485761018260043561016b6107e4565b9061017d610178826107fa565b610946565b610a0c565b005b34610148575f3660031901126101485760206040517f9f2df0fed2c77648de5860a4cc508cd0818c85b8b8a1ab4ceeef8d981c8956a68152f35b34610148576040366003190112610148576101e46101da6107ce565b60243590336108af565b602060405160018152f35b34610148575f3660031901126101485760206040515f8152f35b34610148575f366003190112610148576040515f6004548060011c9060018116801561031a575b602083108114610306578285529081156102ea5750600114610294575b50819003601f01601f19168101906001600160401b038211818310176102805761027c829182604052826107a4565b0390f35b634e487b7160e01b5f52604160045260245ffd5b60045f9081529091507f8a35acfbc15ff81a39ae7d344fd709f28e8600b4aa8c65c6b64bfe7fe36bd19b5b8282106102d45750602091508201018261024d565b60018160209254838588010152019101906102bf565b90506020925060ff191682840152151560051b8201018261024d565b634e487b7160e01b5f52602260045260245ffd5b91607f1691610230565b346101485760403660031901126101485761033d6107e4565b6004355f52600560205260405f209060018060a01b03165f52602052602060ff60405f2054166040519015158152f35b34610148576040366003190112610148576101826103896107ce565b6024359061039882338361080c565b610a90565b34610148576020366003190112610148576001600160a01b036103be6107ce565b165f525f602052602060405f2054604051908152f35b346101485760203660031901126101485761018260043533610a90565b346101485760403660031901126101485761040a6107ce565b335f9081527f15a28d26fa1bf736cf7edc9922607171ccb09c3c73b808e7772a3013e068a5226020526040902054602435919060ff16156104b9576001600160a01b03169081156104a657600254908082018092116104925760205f80516020610b02833981519152915f9360025584845283825260408420818154019055604051908152a3005b634e487b7160e01b5f52601160045260245ffd5b63ec442f0560e01b5f525f60045260245ffd5b632fdab94f60e11b5f523360045260245ffd5b34610148576040366003190112610148576104e56107e4565b336001600160a01b038216036105015761018290600435610a0c565b63334bd91960e11b5f5260045ffd5b34610148575f36600319011261014857602060405160128152f35b346101485760403660031901126101485761018260043561054a6107e4565b90610557610178826107fa565b610980565b3461014857602036600319011261014857602061057a6004356107fa565b604051908152f35b34610148576060366003190112610148576101e461059e6107ce565b6105a66107e4565b604435916105b583338361080c565b6108af565b34610148575f366003190112610148576020600254604051908152f35b34610148576040366003190112610148576105f06107ce565b60243590331561066c576001600160a01b031690811561065957335f52600160205260405f20825f526020528060405f20556040519081527f8c5be1e5ebec7d5bd14f71427d1e84f3dd0314c0f7b2291e5b200ac8c7c3b92560203392a3602060405160018152f35b634a1406b160e11b5f525f60045260245ffd5b63e602df0560e01b5f525f60045260245ffd5b34610148575f366003190112610148576040515f6003548060011c90600181168015610747575b602083108114610306578285529081156102ea57506001146106f15750819003601f01601f19168101906001600160401b038211818310176102805761027c829182604052826107a4565b60035f9081529091507fc2575a0e9e593c00f959f8c92f12db2869c3395a3b0502d05e2516446f71f85b5b8282106107315750602091508201018261024d565b600181602092548385880101520191019061071c565b91607f16916106a6565b34610148576020366003190112610148576004359063ffffffff60e01b821680920361014857602091637965db0b60e01b8114908115610793575b5015158152f35b6301ffc9a760e01b1490508361078c565b602060409281835280519182918282860152018484015e5f828201840152601f01601f1916010190565b600435906001600160a01b038216820361014857565b602435906001600160a01b038216820361014857565b5f526005602052600160405f20015490565b6001600160a01b039081165f818152600160209081526040808320948616835293905291909120549291905f198410610846575b50505050565b82841061088c57801561066c576001600160a01b03821615610659575f52600160205260405f209060018060a01b03165f5260205260405f20910390555f808080610840565b508290637dc7a0d960e11b5f5260018060a01b031660045260245260445260645ffd5b6001600160a01b0316908115610933576001600160a01b03169182156104a657815f525f60205260405f205481811061091a57815f80516020610b0283398151915292602092855f525f84520360405f2055845f525f825260405f20818154019055604051908152a3565b8263391434e360e21b5f5260045260245260445260645ffd5b634b637e8f60e11b5f525f60045260245ffd5b5f81815260056020908152604080832033845290915290205460ff161561096a5750565b63e2517d3f60e01b5f523360045260245260445ffd5b5f8181526005602090815260408083206001600160a01b038616845290915290205460ff16610a06575f8181526005602090815260408083206001600160a01b0395909516808452949091528120805460ff19166001179055339291907f2f8788117e7eff1d82e926ec794901d17c78024a50270940304540a733656f0d9080a4600190565b50505f90565b5f8181526005602090815260408083206001600160a01b038616845290915290205460ff1615610a06575f8181526005602090815260408083206001600160a01b0395909516808452949091528120805460ff19169055339291907ff6391f5c32d9c69d2a47ea670b442974b53935d1edc7fd64eb21e047a839171b9080a4600190565b9091906001600160a01b0316801561093357805f525f60205260405f2054838110610ae7576020845f94955f80516020610b02833981519152938587528684520360408620558060025403600255604051908152a3565b915063391434e360e21b5f5260045260245260445260645ffdfeddf252ad1be2c89b69c2b068fc378daa952ba7f163c4a11628f55a4df523b3efa264697066735822122042c96995674afe9086d519403f2c6f8664fd47634585f9c207f19568ea923cd064736f6c634300081a003315a28d26fa1bf736cf7edc9922607171ccb09c3c73b808e7772a3013e068a522000000000000000000000000016946831aefe6c3998f28957b902affbc7fe75e"
        },
        {
          "transactionType": "CREATE",
          "address": "0x5ee1d08b04bfa7e28c3dbf0646942bd429e09bb7",
          "initCode": "0x6080604052346103e95761107d6040813803918261001c816103ed565b9384928339810103126103e95780519060028210156103e95760200151906001600160a01b03821682036103e95780159182156103ca5761005d60406103ed565b600381526259455360e81b6020820152925b156103ac5761007e60406103ed565b600381526259455360e81b60208201525b83516001600160401b0381116102bd57600354600181811c911680156103a2575b602082101461029f57601f811161033f575b50602094601f82116001146102dc579481929394955f926102d1575b50508160011b915f199060031b1c1916176003555b8051906001600160401b0382116102bd57600454600181811c911680156102b3575b602082101461029f57601f811161023c575b50602090601f83116001146101d35761015d9392915f91836101c8575b50508160011b915f199060031b1c191617600455610412565b5033156101b557335f81815260208181526040518281527fddf252ad1be2c89b69c2b068fc378daa952ba7f163c4a11628f55a4df523b3ef9190a360ff801960065416911617600655604051610b9f90816104be8239f35b63ec442f0560e01b5f525f60045260245ffd5b015190505f80610144565b90601f1983169160045f52815f20925f5b818110610224575091600193918561015d9796941061020c575b505050811b01600455610412565b01515f1960f88460031b161c191690555f80806101fe565b929360206001819287860151815501950193016101e4565b60045f527f8a35acfbc15ff81a39ae7d344fd709f28e8600b4aa8c65c6b64bfe7fe36bd19b601f840160051c81019160208510610295575b601f0160051c01905b81811061028a5750610127565b5f815560010161027d565b9091508190610274565b634e487b7160e01b5f52602260045260245ffd5b90607f1690610115565b634e487b7160e01b5f52604160045260245ffd5b015190505f806100de565b601f1982169560035f52805f20915f5b8881106103275750836001959697981061030f575b505050811b016003556100f3565b01515f1960f88460031b161c191690555f8080610301565b919260206001819286850151815501940192016102ec565b60035f527fc2575a0e9e593c00f959f8c92f12db2869c3395a3b0502d05e2516446f71f85b601f830160051c81019160208410610398575b601f0160051c01905b81811061038d57506100c2565b5f8155600101610380565b9091508190610377565b90607f16906100b0565b6103b660406103ed565b60028152614e4f60f01b602082015261008f565b6103d460406103ed565b60028152614e4f60f01b60208201529261006f565b5f80fd5b6040519190601f01601f191682016001600160401b038111838210176102bd57604052565b6001600160a01b0381165f9081525f8051602061105d833981519152602052604090205460ff166104b8576001600160a01b03165f8181525f8051602061105d83398151915260205260408120805460ff191660011790553391907f9f2df0fed2c77648de5860a4cc508cd0818c85b8b8a1ab4ceeef8d981c8956a6907f2f8788117e7eff1d82e926ec794901d17c78024a50270940304540a733656f0d9080a4600190565b505f9056fe6080806040526004361015610012575f80fd5b5f3560e01c90816301ffc9a7146107995750806306fdde03146106c7578063095ea7b31461061f57806318160ddd1461060257806323b872dd146105ca578063248a9ca3146105a45780632f2ff15d1461057357806330fa738c14610536578063313ce5671461051b57806336568abe146104d757806340c10f19146103fc57806342966c68146103df57806370a08231146103a857806379cc67901461037857806391d148541461032f57806395d89b4114610214578063a217fddf146101fa578063a9059cbb146101c9578063d53913931461018f578063d547741f146101575763dd62ed3e14610103575f80fd5b346101535760403660031901126101535761011c610816565b61012461082c565b6001600160a01b039182165f908152600160209081526040808320949093168252928352819020549051908152f35b5f80fd5b346101535760403660031901126101535761018d60043561017661082c565b9061018861018382610842565b61098e565b610a54565b005b34610153575f3660031901126101535760206040517f9f2df0fed2c77648de5860a4cc508cd0818c85b8b8a1ab4ceeef8d981c8956a68152f35b34610153576040366003190112610153576101ef6101e5610816565b60243590336108f7565b602060405160018152f35b34610153575f3660031901126101535760206040515f8152f35b34610153575f366003190112610153576040515f6004548060011c90600181168015610325575b602083108114610311578285529081156102f5575060011461029f575b50819003601f01601f19168101906001600160401b0382118183101761028b57610287829182604052826107ec565b0390f35b634e487b7160e01b5f52604160045260245ffd5b60045f9081529091507f8a35acfbc15ff81a39ae7d344fd709f28e8600b4aa8c65c6b64bfe7fe36bd19b5b8282106102df57506020915082010182610258565b60018160209254838588010152019101906102ca565b90506020925060ff191682840152151560051b82010182610258565b634e487b7160e01b5f52602260045260245ffd5b91607f169161023b565b346101535760403660031901126101535761034861082c565b6004355f52600560205260405f209060018060a01b03165f52602052602060ff60405f2054166040519015158152f35b346101535760403660031901126101535761018d610394610816565b602435906103a3823383610854565b610ad8565b34610153576020366003190112610153576001600160a01b036103c9610816565b165f525f602052602060405f2054604051908152f35b346101535760203660031901126101535761018d60043533610ad8565b3461015357604036600319011261015357610415610816565b335f9081527f15a28d26fa1bf736cf7edc9922607171ccb09c3c73b808e7772a3013e068a5226020526040902054602435919060ff16156104c4576001600160a01b03169081156104b1576002549080820180921161049d5760205f80516020610b4a833981519152915f9360025584845283825260408420818154019055604051908152a3005b634e487b7160e01b5f52601160045260245ffd5b63ec442f0560e01b5f525f60045260245ffd5b632fdab94f60e11b5f523360045260245ffd5b34610153576040366003190112610153576104f061082c565b336001600160a01b0382160361050c5761018d90600435610a54565b63334bd91960e11b5f5260045ffd5b34610153575f36600319011261015357602060405160128152f35b34610153575f3660031901126101535760ff60065416604051600282101561055f576020918152f35b634e487b7160e01b5f52602160045260245ffd5b346101535760403660031901126101535761018d60043561059261082c565b9061059f61018382610842565b6109c8565b346101535760203660031901126101535760206105c2600435610842565b604051908152f35b34610153576060366003190112610153576101ef6105e6610816565b6105ee61082c565b604435916105fd833383610854565b6108f7565b34610153575f366003190112610153576020600254604051908152f35b3461015357604036600319011261015357610638610816565b6024359033156106b4576001600160a01b03169081156106a157335f52600160205260405f20825f526020528060405f20556040519081527f8c5be1e5ebec7d5bd14f71427d1e84f3dd0314c0f7b2291e5b200ac8c7c3b92560203392a3602060405160018152f35b634a1406b160e11b5f525f60045260245ffd5b63e602df0560e01b5f525f60045260245ffd5b34610153575f366003190112610153576040515f6003548060011c9060018116801561078f575b602083108114610311578285529081156102f557506001146107395750819003601f01601f19168101906001600160401b0382118183101761028b57610287829182604052826107ec565b60035f9081529091507fc2575a0e9e593c00f959f8c92f12db2869c3395a3b0502d05e2516446f71f85b5b82821061077957506020915082010182610258565b6001816020925483858801015201910190610764565b91607f16916106ee565b34610153576020366003190112610153576004359063ffffffff60e01b821680920361015357602091637965db0b60e01b81149081156107db575b5015158152f35b6301ffc9a760e01b149050836107d4565b602060409281835280519182918282860152018484015e5f828201840152601f01601f1916010190565b600435906001600160a01b038216820361015357565b602435906001600160a01b038216820361015357565b5f526005602052600160405f20015490565b6001600160a01b039081165f818152600160209081526040808320948616835293905291909120549291905f19841061088e575b50505050565b8284106108d45780156106b4576001600160a01b038216156106a1575f52600160205260405f209060018060a01b03165f5260205260405f20910390555f808080610888565b508290637dc7a0d960e11b5f5260018060a01b031660045260245260445260645ffd5b6001600160a01b031690811561097b576001600160a01b03169182156104b157815f525f60205260405f205481811061096257815f80516020610b4a83398151915292602092855f525f84520360405f2055845f525f825260405f20818154019055604051908152a3565b8263391434e360e21b5f5260045260245260445260645ffd5b634b637e8f60e11b5f525f60045260245ffd5b5f81815260056020908152604080832033845290915290205460ff16156109b25750565b63e2517d3f60e01b5f523360045260245260445ffd5b5f8181526005602090815260408083206001600160a01b038616845290915290205460ff16610a4e575f8181526005602090815260408083206001600160a01b0395909516808452949091528120805460ff19166001179055339291907f2f8788117e7eff1d82e926ec794901d17c78024a50270940304540a733656f0d9080a4600190565b50505f90565b5f8181526005602090815260408083206001600160a01b038616845290915290205460ff1615610a4e575f8181526005602090815260408083206001600160a01b0395909516808452949091528120805460ff19169055339291907ff6391f5c32d9c69d2a47ea670b442974b53935d1edc7fd64eb21e047a839171b9080a4600190565b9091906001600160a01b0316801561097b57805f525f60205260405f2054838110610b2f576020845f94955f80516020610b4a833981519152938587528684520360408620558060025403600255604051908152a3565b915063391434e360e21b5f5260045260245260445260645ffdfeddf252ad1be2c89b69c2b068fc378daa952ba7f163c4a11628f55a4df523b3efa26469706673582212205ebcc03833e8dfb89976bef9d44667842f445926b812ec6682841348a418b89564736f6c634300081a003315a28d26fa1bf736cf7edc9922607171ccb09c3c73b808e7772a3013e068a5220000000000000000000000000000000000000000000000000000000000000000000000000000000000000000016946831aefe6c3998f28957b902affbc7fe75e"
        },
        {
          "transactionType": "CREATE",
          "address": "0x6852f2527a466455b77d08c18fdf52238b723115",
          "initCode": "0x6080604052346103e95761107d6040813803918261001c816103ed565b9384928339810103126103e95780519060028210156103e95760200151906001600160a01b03821682036103e95780159182156103ca5761005d60406103ed565b600381526259455360e81b6020820152925b156103ac5761007e60406103ed565b600381526259455360e81b60208201525b83516001600160401b0381116102bd57600354600181811c911680156103a2575b602082101461029f57601f811161033f575b50602094601f82116001146102dc579481929394955f926102d1575b50508160011b915f199060031b1c1916176003555b8051906001600160401b0382116102bd57600454600181811c911680156102b3575b602082101461029f57601f811161023c575b50602090601f83116001146101d35761015d9392915f91836101c8575b50508160011b915f199060031b1c191617600455610412565b5033156101b557335f81815260208181526040518281527fddf252ad1be2c89b69c2b068fc378daa952ba7f163c4a11628f55a4df523b3ef9190a360ff801960065416911617600655604051610b9f90816104be8239f35b63ec442f0560e01b5f525f60045260245ffd5b015190505f80610144565b90601f1983169160045f52815f20925f5b818110610224575091600193918561015d9796941061020c575b505050811b01600455610412565b01515f1960f88460031b161c191690555f80806101fe565b929360206001819287860151815501950193016101e4565b60045f527f8a35acfbc15ff81a39ae7d344fd709f28e8600b4aa8c65c6b64bfe7fe36bd19b601f840160051c81019160208510610295575b601f0160051c01905b81811061028a5750610127565b5f815560010161027d565b9091508190610274565b634e487b7160e01b5f52602260045260245ffd5b90607f1690610115565b634e487b7160e01b5f52604160045260245ffd5b015190505f806100de565b601f1982169560035f52805f20915f5b8881106103275750836001959697981061030f575b505050811b016003556100f3565b01515f1960f88460031b161c191690555f8080610301565b919260206001819286850151815501940192016102ec565b60035f527fc2575a0e9e593c00f959f8c92f12db2869c3395a3b0502d05e2516446f71f85b601f830160051c81019160208410610398575b601f0160051c01905b81811061038d57506100c2565b5f8155600101610380565b9091508190610377565b90607f16906100b0565b6103b660406103ed565b60028152614e4f60f01b602082015261008f565b6103d460406103ed565b60028152614e4f60f01b60208201529261006f565b5f80fd5b6040519190601f01601f191682016001600160401b038111838210176102bd57604052565b6001600160a01b0381165f9081525f8051602061105d833981519152602052604090205460ff166104b8576001600160a01b03165f8181525f8051602061105d83398151915260205260408120805460ff191660011790553391907f9f2df0fed2c77648de5860a4cc508cd0818c85b8b8a1ab4ceeef8d981c8956a6907f2f8788117e7eff1d82e926ec794901d17c78024a50270940304540a733656f0d9080a4600190565b505f9056fe6080806040526004361015610012575f80fd5b5f3560e01c90816301ffc9a7146107995750806306fdde03146106c7578063095ea7b31461061f57806318160ddd1461060257806323b872dd146105ca578063248a9ca3146105a45780632f2ff15d1461057357806330fa738c14610536578063313ce5671461051b57806336568abe146104d757806340c10f19146103fc57806342966c68146103df57806370a08231146103a857806379cc67901461037857806391d148541461032f57806395d89b4114610214578063a217fddf146101fa578063a9059cbb146101c9578063d53913931461018f578063d547741f146101575763dd62ed3e14610103575f80fd5b346101535760403660031901126101535761011c610816565b61012461082c565b6001600160a01b039182165f908152600160209081526040808320949093168252928352819020549051908152f35b5f80fd5b346101535760403660031901126101535761018d60043561017661082c565b9061018861018382610842565b61098e565b610a54565b005b34610153575f3660031901126101535760206040517f9f2df0fed2c77648de5860a4cc508cd0818c85b8b8a1ab4ceeef8d981c8956a68152f35b34610153576040366003190112610153576101ef6101e5610816565b60243590336108f7565b602060405160018152f35b34610153575f3660031901126101535760206040515f8152f35b34610153575f366003190112610153576040515f6004548060011c90600181168015610325575b602083108114610311578285529081156102f5575060011461029f575b50819003601f01601f19168101906001600160401b0382118183101761028b57610287829182604052826107ec565b0390f35b634e487b7160e01b5f52604160045260245ffd5b60045f9081529091507f8a35acfbc15ff81a39ae7d344fd709f28e8600b4aa8c65c6b64bfe7fe36bd19b5b8282106102df57506020915082010182610258565b60018160209254838588010152019101906102ca565b90506020925060ff191682840152151560051b82010182610258565b634e487b7160e01b5f52602260045260245ffd5b91607f169161023b565b346101535760403660031901126101535761034861082c565b6004355f52600560205260405f209060018060a01b03165f52602052602060ff60405f2054166040519015158152f35b346101535760403660031901126101535761018d610394610816565b602435906103a3823383610854565b610ad8565b34610153576020366003190112610153576001600160a01b036103c9610816565b165f525f602052602060405f2054604051908152f35b346101535760203660031901126101535761018d60043533610ad8565b3461015357604036600319011261015357610415610816565b335f9081527f15a28d26fa1bf736cf7edc9922607171ccb09c3c73b808e7772a3013e068a5226020526040902054602435919060ff16156104c4576001600160a01b03169081156104b1576002549080820180921161049d5760205f80516020610b4a833981519152915f9360025584845283825260408420818154019055604051908152a3005b634e487b7160e01b5f52601160045260245ffd5b63ec442f0560e01b5f525f60045260245ffd5b632fdab94f60e11b5f523360045260245ffd5b34610153576040366003190112610153576104f061082c565b336001600160a01b0382160361050c5761018d90600435610a54565b63334bd91960e11b5f5260045ffd5b34610153575f36600319011261015357602060405160128152f35b34610153575f3660031901126101535760ff60065416604051600282101561055f576020918152f35b634e487b7160e01b5f52602160045260245ffd5b346101535760403660031901126101535761018d60043561059261082c565b9061059f61018382610842565b6109c8565b346101535760203660031901126101535760206105c2600435610842565b604051908152f35b34610153576060366003190112610153576101ef6105e6610816565b6105ee61082c565b604435916105fd833383610854565b6108f7565b34610153575f366003190112610153576020600254604051908152f35b3461015357604036600319011261015357610638610816565b6024359033156106b4576001600160a01b03169081156106a157335f52600160205260405f20825f526020528060405f20556040519081527f8c5be1e5ebec7d5bd14f71427d1e84f3dd0314c0f7b2291e5b200ac8c7c3b92560203392a3602060405160018152f35b634a1406b160e11b5f525f60045260245ffd5b63e602df0560e01b5f525f60045260245ffd5b34610153575f366003190112610153576040515f6003548060011c9060018116801561078f575b602083108114610311578285529081156102f557506001146107395750819003601f01601f19168101906001600160401b0382118183101761028b57610287829182604052826107ec565b60035f9081529091507fc2575a0e9e593c00f959f8c92f12db2869c3395a3b0502d05e2516446f71f85b5b82821061077957506020915082010182610258565b6001816020925483858801015201910190610764565b91607f16916106ee565b34610153576020366003190112610153576004359063ffffffff60e01b821680920361015357602091637965db0b60e01b81149081156107db575b5015158152f35b6301ffc9a760e01b149050836107d4565b602060409281835280519182918282860152018484015e5f828201840152601f01601f1916010190565b600435906001600160a01b038216820361015357565b602435906001600160a01b038216820361015357565b5f526005602052600160405f20015490565b6001600160a01b039081165f818152600160209081526040808320948616835293905291909120549291905f19841061088e575b50505050565b8284106108d45780156106b4576001600160a01b038216156106a1575f52600160205260405f209060018060a01b03165f5260205260405f20910390555f808080610888565b508290637dc7a0d960e11b5f5260018060a01b031660045260245260445260645ffd5b6001600160a01b031690811561097b576001600160a01b03169182156104b157815f525f60205260405f205481811061096257815f80516020610b4a83398151915292602092855f525f84520360405f2055845f525f825260405f20818154019055604051908152a3565b8263391434e360e21b5f5260045260245260445260645ffd5b634b637e8f60e11b5f525f60045260245ffd5b5f81815260056020908152604080832033845290915290205460ff16156109b25750565b63e2517d3f60e01b5f523360045260245260445ffd5b5f8181526005602090815260408083206001600160a01b038616845290915290205460ff16610a4e575f8181526005602090815260408083206001600160a01b0395909516808452949091528120805460ff19166001179055339291907f2f8788117e7eff1d82e926ec794901d17c78024a50270940304540a733656f0d9080a4600190565b50505f90565b5f8181526005602090815260408083206001600160a01b038616845290915290205460ff1615610a4e575f8181526005602090815260408083206001600160a01b0395909516808452949091528120805460ff19169055339291907ff6391f5c32d9c69d2a47ea670b442974b53935d1edc7fd64eb21e047a839171b9080a4600190565b9091906001600160a01b0316801561097b57805f525f60205260405f2054838110610b2f576020845f94955f80516020610b4a833981519152938587528684520360408620558060025403600255604051908152a3565b915063391434e360e21b5f5260045260245260445260645ffdfeddf252ad1be2c89b69c2b068fc378daa952ba7f163c4a11628f55a4df523b3efa26469706673582212205ebcc03833e8dfb89976bef9d44667842f445926b812ec6682841348a418b89564736f6c634300081a003315a28d26fa1bf736cf7edc9922607171ccb09c3c73b808e7772a3013e068a5220000000000000000000000000000000000000000000000000000000000000001000000000000000000000000016946831aefe6c3998f28957b902affbc7fe75e"
        }
      ],
      "isFixedGasLimit": false
    }
  ],
  "receipts": [
    {
      "status": "0x1",
      "cumulativeGasUsed": "0x0",
      "logs": [
        {
          "address": "0x80d32f6004f51b65d89abecf0f744d22f491306f",
          "topics": [
            "0x8c5be1e5ebec7d5bd14f71427d1e84f3dd0314c0f7b2291e5b200ac8c7c3b925",
            "0x000000000000000000000000f925ec96b9f19ee665b76c0cb847a230992d6948",
            "0x000000000000000000000000016946831aefe6c3998f28957b902affbc7fe75e"
          ],
          "data": "0x0000000000000000000000000000000000000000000000000000000005f5e100",
          "blockHash": "0x48b7c5e8a18c02ed41ef32ca13d64b25ac2344e897a1648db7cffbbd3fbd113d",
          "blockNumber": "0xb8e670d",
          "transactionHash": "0x560123ede4ac1de28f5c07c1b2e6cdca63ff63a60a042c686192472904c704a8",
          "transactionIndex": "0x0",
          "logIndex": "0x0",
          "removed": false
        }
      ],
      "logsBloom": "0x00000000000000000000000000000000000000000000000000000000000000000000000000000000000000000000000000000000000000000000000000200000000000000000000000000000000000000000800000000000001000000000000000000000000000000000000000000020000000000000000000000000000000000000000000000000000009000000000000000000000000000000000000000000020000000000000000000000000000800000000000000000000000000000400000000000000000000000000000000001000000000000000000000000000000000010000000000000000000004000000000000000000000000000000000000000",
      "type": "0x2",
      "transactionHash": "0x560123ede4ac1de28f5c07c1b2e6cdca63ff63a60a042c686192472904c704a8",
      "transactionIndex": "0x0",
      "blockHash": "0x48b7c5e8a18c02ed41ef32ca13d64b25ac2344e897a1648db7cffbbd3fbd113d",
      "blockNumber": "0xb8e670d",
      "gasUsed": "0xb361",
      "effectiveGasPrice": "0x7d2b7500",
      "from": "0xf925ec96b9f19ee665b76c0cb847a230992d6948",
      "to": "0x80d32f6004f51b65d89abecf0f744d22f491306f",
      "contractAddress": null
    },
    {
      "status": "0x1",
      "cumulativeGasUsed": "0x0",
      "logs": [
        {
          "address": "0x80d32f6004f51b65d89abecf0f744d22f491306f",
          "topics": [
            "0xddf252ad1be2c89b69c2b068fc378daa952ba7f163c4a11628f55a4df523b3ef",
            "0x000000000000000000000000f925ec96b9f19ee665b76c0cb847a230992d6948",
            "0x000000000000000000000000016946831aefe6c3998f28957b902affbc7fe75e"
          ],
          "data": "0x0000000000000000000000000000000000000000000000000000000005f5e100",
          "blockHash": "0x9fe43c336547102e141ab71bd8253c749c5c8b45b673e31222c9c7c3af8741a1",
          "blockNumber": "0xb8e670e",
          "transactionHash": "0xbd79419b21278b4ffd2e363d3717c50b9a968de83919cd03029183e395632190",
          "transactionIndex": "0x2",
          "logIndex": "0x6",
          "removed": false
        }
      ],
      "logsBloom": "0x00000000000000000000000000000000000000000000000000000000000000000000000000000000000000000000000000000000000000000000000000000000000000000000000000000008000000000000800000000000001000000000000000000000000000000000000000000020000000000000000000000010000000000000000000000000000009000000000000000000000000000000000000000000000000000000000000000000000000800000000000000000000000000000400000000002000000000000000000000001000000000000000000000000000000000000000000000000000000004000000000000000000000000000000000000000",
      "type": "0x2",
      "transactionHash": "0xbd79419b21278b4ffd2e363d3717c50b9a968de83919cd03029183e395632190",
      "transactionIndex": "0x2",
      "blockHash": "0x9fe43c336547102e141ab71bd8253c749c5c8b45b673e31222c9c7c3af8741a1",
      "blockNumber": "0xb8e670e",
      "gasUsed": "0x18865",
      "effectiveGasPrice": "0x7d2b7500",
      "from": "0xf925ec96b9f19ee665b76c0cb847a230992d6948",
      "to": "0x016946831aefe6c3998f28957b902affbc7fe75e",
      "contractAddress": null
    },
    {
      "status": "0x1",
      "cumulativeGasUsed": "0x0",
      "logs": [
        {
          "address": "0x38932a93c92b25d001ae14cca8313e1e5dd2e2cd",
          "topics": [
            "0x2f8788117e7eff1d82e926ec794901d17c78024a50270940304540a733656f0d",
            "0x9f2df0fed2c77648de5860a4cc508cd0818c85b8b8a1ab4ceeef8d981c8956a6",
            "0x000000000000000000000000016946831aefe6c3998f28957b902affbc7fe75e",
            "0x000000000000000000000000016946831aefe6c3998f28957b902affbc7fe75e"
          ],
          "data": "0x",
          "blockHash": "0x3b05d3b4ee4eff4eb7f02ee5140e53ea4461819f348fb467cb7cebfe1a5345d0",
          "blockNumber": "0xb8e670f",
          "transactionHash": "0x0b54e3e3ecdad6bc5704563ec2f459f0334d94e10280a9fe57b13f2673ac16f8",
          "transactionIndex": "0x0",
          "logIndex": "0x0",
          "removed": false
        },
        {
          "address": "0x38932a93c92b25d001ae14cca8313e1e5dd2e2cd",
          "topics": [
            "0xddf252ad1be2c89b69c2b068fc378daa952ba7f163c4a11628f55a4df523b3ef",
            "0x0000000000000000000000000000000000000000000000000000000000000000",
            "0x000000000000000000000000016946831aefe6c3998f28957b902affbc7fe75e"
          ],
          "data": "0x0000000000000000000000000000000000000000000000000000000001fca056",
          "blockHash": "0x3b05d3b4ee4eff4eb7f02ee5140e53ea4461819f348fb467cb7cebfe1a5345d0",
          "blockNumber": "0xb8e670f",
          "transactionHash": "0x0b54e3e3ecdad6bc5704563ec2f459f0334d94e10280a9fe57b13f2673ac16f8",
          "transactionIndex": "0x0",
          "logIndex": "0x1",
          "removed": false
        },
        {
          "address": "0x5ee1d08b04bfa7e28c3dbf0646942bd429e09bb7",
          "topics": [
            "0x2f8788117e7eff1d82e926ec794901d17c78024a50270940304540a733656f0d",
            "0x9f2df0fed2c77648de5860a4cc508cd0818c85b8b8a1ab4ceeef8d981c8956a6",
            "0x000000000000000000000000016946831aefe6c3998f28957b902affbc7fe75e",
            "0x000000000000000000000000016946831aefe6c3998f28957b902affbc7fe75e"
          ],
          "data": "0x",
          "blockHash": "0x3b05d3b4ee4eff4eb7f02ee5140e53ea4461819f348fb467cb7cebfe1a5345d0",
          "blockNumber": "0xb8e670f",
          "transactionHash": "0x0b54e3e3ecdad6bc5704563ec2f459f0334d94e10280a9fe57b13f2673ac16f8",
          "transactionIndex": "0x0",
          "logIndex": "0x2",
          "removed": false
        },
        {
          "address": "0x5ee1d08b04bfa7e28c3dbf0646942bd429e09bb7",
          "topics": [
            "0xddf252ad1be2c89b69c2b068fc378daa952ba7f163c4a11628f55a4df523b3ef",
            "0x0000000000000000000000000000000000000000000000000000000000000000",
            "0x000000000000000000000000016946831aefe6c3998f28957b902affbc7fe75e"
          ],
          "data": "0x0000000000000000000000000000000000000000000000000000000000000000",
          "blockHash": "0x3b05d3b4ee4eff4eb7f02ee5140e53ea4461819f348fb467cb7cebfe1a5345d0",
          "blockNumber": "0xb8e670f",
          "transactionHash": "0x0b54e3e3ecdad6bc5704563ec2f459f0334d94e10280a9fe57b13f2673ac16f8",
          "transactionIndex": "0x0",
          "logIndex": "0x3",
          "removed": false
        },
        {
          "address": "0x6852f2527a466455b77d08c18fdf52238b723115",
          "topics": [
            "0x2f8788117e7eff1d82e926ec794901d17c78024a50270940304540a733656f0d",
            "0x9f2df0fed2c77648de5860a4cc508cd0818c85b8b8a1ab4ceeef8d981c8956a6",
            "0x000000000000000000000000016946831aefe6c3998f28957b902affbc7fe75e",
            "0x000000000000000000000000016946831aefe6c3998f28957b902affbc7fe75e"
          ],
          "data": "0x",
          "blockHash": "0x3b05d3b4ee4eff4eb7f02ee5140e53ea4461819f348fb467cb7cebfe1a5345d0",
          "blockNumber": "0xb8e670f",
          "transactionHash": "0x0b54e3e3ecdad6bc5704563ec2f459f0334d94e10280a9fe57b13f2673ac16f8",
          "transactionIndex": "0x0",
          "logIndex": "0x4",
          "removed": false
        },
        {
          "address": "0x6852f2527a466455b77d08c18fdf52238b723115",
          "topics": [
            "0xddf252ad1be2c89b69c2b068fc378daa952ba7f163c4a11628f55a4df523b3ef",
            "0x0000000000000000000000000000000000000000000000000000000000000000",
            "0x000000000000000000000000016946831aefe6c3998f28957b902affbc7fe75e"
          ],
          "data": "0x0000000000000000000000000000000000000000000000000000000000000000",
          "blockHash": "0x3b05d3b4ee4eff4eb7f02ee5140e53ea4461819f348fb467cb7cebfe1a5345d0",
          "blockNumber": "0xb8e670f",
          "transactionHash": "0x0b54e3e3ecdad6bc5704563ec2f459f0334d94e10280a9fe57b13f2673ac16f8",
          "transactionIndex": "0x0",
          "logIndex": "0x5",
          "removed": false
        },
        {
          "address": "0x5ee1d08b04bfa7e28c3dbf0646942bd429e09bb7",
          "topics": [
            "0xddf252ad1be2c89b69c2b068fc378daa952ba7f163c4a11628f55a4df523b3ef",
            "0x0000000000000000000000000000000000000000000000000000000000000000",
            "0x000000000000000000000000016946831aefe6c3998f28957b902affbc7fe75e"
          ],
          "data": "0x0000000000000000000000000000000000000000000000000000000001fca055",
          "blockHash": "0x3b05d3b4ee4eff4eb7f02ee5140e53ea4461819f348fb467cb7cebfe1a5345d0",
          "blockNumber": "0xb8e670f",
          "transactionHash": "0x0b54e3e3ecdad6bc5704563ec2f459f0334d94e10280a9fe57b13f2673ac16f8",
          "transactionIndex": "0x0",
          "logIndex": "0x6",
          "removed": false
        },
        {
          "address": "0x6852f2527a466455b77d08c18fdf52238b723115",
          "topics": [
            "0xddf252ad1be2c89b69c2b068fc378daa952ba7f163c4a11628f55a4df523b3ef",
            "0x0000000000000000000000000000000000000000000000000000000000000000",
            "0x000000000000000000000000016946831aefe6c3998f28957b902affbc7fe75e"
          ],
          "data": "0x0000000000000000000000000000000000000000000000000000000001fca055",
          "blockHash": "0x3b05d3b4ee4eff4eb7f02ee5140e53ea4461819f348fb467cb7cebfe1a5345d0",
          "blockNumber": "0xb8e670f",
          "transactionHash": "0x0b54e3e3ecdad6bc5704563ec2f459f0334d94e10280a9fe57b13f2673ac16f8",
          "transactionIndex": "0x0",
          "logIndex": "0x7",
          "removed": false
        },
        {
          "address": "0x5ee1d08b04bfa7e28c3dbf0646942bd429e09bb7",
          "topics": [
            "0xddf252ad1be2c89b69c2b068fc378daa952ba7f163c4a11628f55a4df523b3ef",
            "0x0000000000000000000000000000000000000000000000000000000000000000",
            "0x000000000000000000000000f925ec96b9f19ee665b76c0cb847a230992d6948"
          ],
          "data": "0x0000000000000000000000000000000000000000000000000000000001fca055",
          "blockHash": "0x3b05d3b4ee4eff4eb7f02ee5140e53ea4461819f348fb467cb7cebfe1a5345d0",
          "blockNumber": "0xb8e670f",
          "transactionHash": "0x0b54e3e3ecdad6bc5704563ec2f459f0334d94e10280a9fe57b13f2673ac16f8",
          "transactionIndex": "0x0",
          "logIndex": "0x8",
          "removed": false
        },
        {
          "address": "0x6852f2527a466455b77d08c18fdf52238b723115",
          "topics": [
            "0xddf252ad1be2c89b69c2b068fc378daa952ba7f163c4a11628f55a4df523b3ef",
            "0x0000000000000000000000000000000000000000000000000000000000000000",
            "0x000000000000000000000000f925ec96b9f19ee665b76c0cb847a230992d6948"
          ],
          "data": "0x0000000000000000000000000000000000000000000000000000000001fca055",
          "blockHash": "0x3b05d3b4ee4eff4eb7f02ee5140e53ea4461819f348fb467cb7cebfe1a5345d0",
          "blockNumber": "0xb8e670f",
          "transactionHash": "0x0b54e3e3ecdad6bc5704563ec2f459f0334d94e10280a9fe57b13f2673ac16f8",
          "transactionIndex": "0x0",
          "logIndex": "0x9",
          "removed": false
        },
        {
          "address": "0x046f421fe91c0bacc045406d5a772a1a7b22299b",
          "topics": [
            "0xdd466e674ea557f56295e2d0218a125ea4b4f0f6f3307b95f85e6110838d6438",
            "0x010e53aa59434c6051d9687bb4d7cf609c133ebd1feddccfb58f267c0f74c228",
            "0x00000000000000000000000038932a93c92b25d001ae14cca8313e1e5dd2e2cd",
            "0x0000000000000000000000005ee1d08b04bfa7e28c3dbf0646942bd429e09bb7"
          ],
          "data": "0x0000000000000000000000000000000000000000000000000000000000000bb8000000000000000000000000000000000000000000000000000000000000003c00000000000000000000000092fd5cf334e9d8ff1070ab7fdca48529c22240c00000000000000000000000000000000000000001697693435bc103ceeb355b320000000000000000000000000000000000000000000000000000000000001af4",
          "blockHash": "0x3b05d3b4ee4eff4eb7f02ee5140e53ea4461819f348fb467cb7cebfe1a5345d0",
          "blockNumber": "0xb8e670f",
          "transactionHash": "0x0b54e3e3ecdad6bc5704563ec2f459f0334d94e10280a9fe57b13f2673ac16f8",
          "transactionIndex": "0x0",
          "logIndex": "0xa",
          "removed": false
        },
        {
          "address": "0x38932a93c92b25d001ae14cca8313e1e5dd2e2cd",
          "topics": [
            "0x8c5be1e5ebec7d5bd14f71427d1e84f3dd0314c0f7b2291e5b200ac8c7c3b925",
            "0x000000000000000000000000016946831aefe6c3998f28957b902affbc7fe75e",
            "0x0000000000000000000000008121cfc4f59988b5398c68134a188a3ba8b2712c"
          ],
          "data": "0xffffffffffffffffffffffffffffffffffffffffffffffffffffffffffffffff",
          "blockHash": "0x3b05d3b4ee4eff4eb7f02ee5140e53ea4461819f348fb467cb7cebfe1a5345d0",
          "blockNumber": "0xb8e670f",
          "transactionHash": "0x0b54e3e3ecdad6bc5704563ec2f459f0334d94e10280a9fe57b13f2673ac16f8",
          "transactionIndex": "0x0",
          "logIndex": "0xb",
          "removed": false
        },
        {
          "address": "0x8121cfc4f59988b5398c68134a188a3ba8b2712c",
          "topics": [
            "0xda9fa7c1b00402c17d0161b249b1ab8bbec047c5a52207b9c112deffd817036b",
            "0x000000000000000000000000016946831aefe6c3998f28957b902affbc7fe75e",
            "0x00000000000000000000000038932a93c92b25d001ae14cca8313e1e5dd2e2cd",
            "0x0000000000000000000000005dd0fdd19d50c8dfe96243a24e6fb6e6c5ec7a92"
          ],
          "data": "0x000000000000000000000000ffffffffffffffffffffffffffffffffffffffff0000000000000000000000000000000000000000000000000000ffffffffffff",
          "blockHash": "0x3b05d3b4ee4eff4eb7f02ee5140e53ea4461819f348fb467cb7cebfe1a5345d0",
          "blockNumber": "0xb8e670f",
          "transactionHash": "0x0b54e3e3ecdad6bc5704563ec2f459f0334d94e10280a9fe57b13f2673ac16f8",
          "transactionIndex": "0x0",
          "logIndex": "0xc",
          "removed": false
        },
        {
          "address": "0x5ee1d08b04bfa7e28c3dbf0646942bd429e09bb7",
          "topics": [
            "0x8c5be1e5ebec7d5bd14f71427d1e84f3dd0314c0f7b2291e5b200ac8c7c3b925",
            "0x000000000000000000000000016946831aefe6c3998f28957b902affbc7fe75e",
            "0x0000000000000000000000008121cfc4f59988b5398c68134a188a3ba8b2712c"
          ],
          "data": "0xffffffffffffffffffffffffffffffffffffffffffffffffffffffffffffffff",
          "blockHash": "0x3b05d3b4ee4eff4eb7f02ee5140e53ea4461819f348fb467cb7cebfe1a5345d0",
          "blockNumber": "0xb8e670f",
          "transactionHash": "0x0b54e3e3ecdad6bc5704563ec2f459f0334d94e10280a9fe57b13f2673ac16f8",
          "transactionIndex": "0x0",
          "logIndex": "0xd",
          "removed": false
        },
        {
          "address": "0x8121cfc4f59988b5398c68134a188a3ba8b2712c",
          "topics": [
            "0xda9fa7c1b00402c17d0161b249b1ab8bbec047c5a52207b9c112deffd817036b",
            "0x000000000000000000000000016946831aefe6c3998f28957b902affbc7fe75e",
            "0x0000000000000000000000005ee1d08b04bfa7e28c3dbf0646942bd429e09bb7",
            "0x0000000000000000000000005dd0fdd19d50c8dfe96243a24e6fb6e6c5ec7a92"
          ],
          "data": "0x000000000000000000000000ffffffffffffffffffffffffffffffffffffffff0000000000000000000000000000000000000000000000000000ffffffffffff",
          "blockHash": "0x3b05d3b4ee4eff4eb7f02ee5140e53ea4461819f348fb467cb7cebfe1a5345d0",
          "blockNumber": "0xb8e670f",
          "transactionHash": "0x0b54e3e3ecdad6bc5704563ec2f459f0334d94e10280a9fe57b13f2673ac16f8",
          "transactionIndex": "0x0",
          "logIndex": "0xe",
          "removed": false
        },
        {
          "address": "0x5dd0fdd19d50c8dfe96243a24e6fb6e6c5ec7a92",
          "topics": [
            "0xddf252ad1be2c89b69c2b068fc378daa952ba7f163c4a11628f55a4df523b3ef",
            "0x0000000000000000000000000000000000000000000000000000000000000000",
            "0x000000000000000000000000016946831aefe6c3998f28957b902affbc7fe75e",
            "0x0000000000000000000000000000000000000000000000000000000000000197"
          ],
          "data": "0x",
          "blockHash": "0x3b05d3b4ee4eff4eb7f02ee5140e53ea4461819f348fb467cb7cebfe1a5345d0",
          "blockNumber": "0xb8e670f",
          "transactionHash": "0x0b54e3e3ecdad6bc5704563ec2f459f0334d94e10280a9fe57b13f2673ac16f8",
          "transactionIndex": "0x0",
          "logIndex": "0xf",
          "removed": false
        },
        {
          "address": "0x046f421fe91c0bacc045406d5a772a1a7b22299b",
          "topics": [
            "0xf208f4912782fd25c7f114ca3723a2d5dd6f3bcc3ac8db5af63baa85f711d5ec",
            "0x010e53aa59434c6051d9687bb4d7cf609c133ebd1feddccfb58f267c0f74c228",
            "0x0000000000000000000000005dd0fdd19d50c8dfe96243a24e6fb6e6c5ec7a92"
          ],
          "data": "0x000000000000000000000000000000000000000000000000000000000000000000000000000000000000000000000000000000000000000000000000000d89b400000000000000000000000000000000000000000000000000000000016714d70000000000000000000000000000000000000000000000000000000000000197",
          "blockHash": "0x3b05d3b4ee4eff4eb7f02ee5140e53ea4461819f348fb467cb7cebfe1a5345d0",
          "blockNumber": "0xb8e670f",
          "transactionHash": "0x0b54e3e3ecdad6bc5704563ec2f459f0334d94e10280a9fe57b13f2673ac16f8",
          "transactionIndex": "0x0",
          "logIndex": "0x10",
          "removed": false
        },
        {
          "address": "0x38932a93c92b25d001ae14cca8313e1e5dd2e2cd",
          "topics": [
            "0xddf252ad1be2c89b69c2b068fc378daa952ba7f163c4a11628f55a4df523b3ef",
            "0x000000000000000000000000016946831aefe6c3998f28957b902affbc7fe75e",
            "0x000000000000000000000000046f421fe91c0bacc045406d5a772a1a7b22299b"
          ],
          "data": "0x0000000000000000000000000000000000000000000000000000000000fe502b",
          "blockHash": "0x3b05d3b4ee4eff4eb7f02ee5140e53ea4461819f348fb467cb7cebfe1a5345d0",
          "blockNumber": "0xb8e670f",
          "transactionHash": "0x0b54e3e3ecdad6bc5704563ec2f459f0334d94e10280a9fe57b13f2673ac16f8",
          "transactionIndex": "0x0",
          "logIndex": "0x11",
          "removed": false
        },
        {
          "address": "0x5ee1d08b04bfa7e28c3dbf0646942bd429e09bb7",
          "topics": [
            "0xddf252ad1be2c89b69c2b068fc378daa952ba7f163c4a11628f55a4df523b3ef",
            "0x000000000000000000000000016946831aefe6c3998f28957b902affbc7fe75e",
            "0x000000000000000000000000046f421fe91c0bacc045406d5a772a1a7b22299b"
          ],
          "data": "0x000000000000000000000000000000000000000000000000000000000093eddf",
          "blockHash": "0x3b05d3b4ee4eff4eb7f02ee5140e53ea4461819f348fb467cb7cebfe1a5345d0",
          "blockNumber": "0xb8e670f",
          "transactionHash": "0x0b54e3e3ecdad6bc5704563ec2f459f0334d94e10280a9fe57b13f2673ac16f8",
          "transactionIndex": "0x0",
          "logIndex": "0x12",
          "removed": false
        },
        {
          "address": "0x046f421fe91c0bacc045406d5a772a1a7b22299b",
          "topics": [
            "0xdd466e674ea557f56295e2d0218a125ea4b4f0f6f3307b95f85e6110838d6438",
            "0xdab85ffef2bab5b87ce674a4ce8d83f9191f34833b9e3426e3be70d50bbf07ab",
            "0x00000000000000000000000038932a93c92b25d001ae14cca8313e1e5dd2e2cd",
            "0x0000000000000000000000006852f2527a466455b77d08c18fdf52238b723115"
          ],
          "data": "0x0000000000000000000000000000000000000000000000000000000000000bb8000000000000000000000000000000000000000000000000000000000000003c00000000000000000000000092fd5cf334e9d8ff1070ab7fdca48529c22240c00000000000000000000000000000000000000001697693435bc103ceeb355b320000000000000000000000000000000000000000000000000000000000001af4",
          "blockHash": "0x3b05d3b4ee4eff4eb7f02ee5140e53ea4461819f348fb467cb7cebfe1a5345d0",
          "blockNumber": "0xb8e670f",
          "transactionHash": "0x0b54e3e3ecdad6bc5704563ec2f459f0334d94e10280a9fe57b13f2673ac16f8",
          "transactionIndex": "0x0",
          "logIndex": "0x13",
          "removed": false
        },
        {
          "address": "0x38932a93c92b25d001ae14cca8313e1e5dd2e2cd",
          "topics": [
            "0x8c5be1e5ebec7d5bd14f71427d1e84f3dd0314c0f7b2291e5b200ac8c7c3b925",
            "0x000000000000000000000000016946831aefe6c3998f28957b902affbc7fe75e",
            "0x0000000000000000000000008121cfc4f59988b5398c68134a188a3ba8b2712c"
          ],
          "data": "0xffffffffffffffffffffffffffffffffffffffffffffffffffffffffffffffff",
          "blockHash": "0x3b05d3b4ee4eff4eb7f02ee5140e53ea4461819f348fb467cb7cebfe1a5345d0",
          "blockNumber": "0xb8e670f",
          "transactionHash": "0x0b54e3e3ecdad6bc5704563ec2f459f0334d94e10280a9fe57b13f2673ac16f8",
          "transactionIndex": "0x0",
          "logIndex": "0x14",
          "removed": false
        },
        {
          "address": "0x8121cfc4f59988b5398c68134a188a3ba8b2712c",
          "topics": [
            "0xda9fa7c1b00402c17d0161b249b1ab8bbec047c5a52207b9c112deffd817036b",
            "0x000000000000000000000000016946831aefe6c3998f28957b902affbc7fe75e",
            "0x00000000000000000000000038932a93c92b25d001ae14cca8313e1e5dd2e2cd",
            "0x0000000000000000000000005dd0fdd19d50c8dfe96243a24e6fb6e6c5ec7a92"
          ],
          "data": "0x000000000000000000000000ffffffffffffffffffffffffffffffffffffffff0000000000000000000000000000000000000000000000000000ffffffffffff",
          "blockHash": "0x3b05d3b4ee4eff4eb7f02ee5140e53ea4461819f348fb467cb7cebfe1a5345d0",
          "blockNumber": "0xb8e670f",
          "transactionHash": "0x0b54e3e3ecdad6bc5704563ec2f459f0334d94e10280a9fe57b13f2673ac16f8",
          "transactionIndex": "0x0",
          "logIndex": "0x15",
          "removed": false
        },
        {
          "address": "0x6852f2527a466455b77d08c18fdf52238b723115",
          "topics": [
            "0x8c5be1e5ebec7d5bd14f71427d1e84f3dd0314c0f7b2291e5b200ac8c7c3b925",
            "0x000000000000000000000000016946831aefe6c3998f28957b902affbc7fe75e",
            "0x0000000000000000000000008121cfc4f59988b5398c68134a188a3ba8b2712c"
          ],
          "data": "0xffffffffffffffffffffffffffffffffffffffffffffffffffffffffffffffff",
          "blockHash": "0x3b05d3b4ee4eff4eb7f02ee5140e53ea4461819f348fb467cb7cebfe1a5345d0",
          "blockNumber": "0xb8e670f",
          "transactionHash": "0x0b54e3e3ecdad6bc5704563ec2f459f0334d94e10280a9fe57b13f2673ac16f8",
          "transactionIndex": "0x0",
          "logIndex": "0x16",
          "removed": false
        },
        {
          "address": "0x8121cfc4f59988b5398c68134a188a3ba8b2712c",
          "topics": [
            "0xda9fa7c1b00402c17d0161b249b1ab8bbec047c5a52207b9c112deffd817036b",
            "0x000000000000000000000000016946831aefe6c3998f28957b902affbc7fe75e",
            "0x0000000000000000000000006852f2527a466455b77d08c18fdf52238b723115",
            "0x0000000000000000000000005dd0fdd19d50c8dfe96243a24e6fb6e6c5ec7a92"
          ],
          "data": "0x000000000000000000000000ffffffffffffffffffffffffffffffffffffffff0000000000000000000000000000000000000000000000000000ffffffffffff",
          "blockHash": "0x3b05d3b4ee4eff4eb7f02ee5140e53ea4461819f348fb467cb7cebfe1a5345d0",
          "blockNumber": "0xb8e670f",
          "transactionHash": "0x0b54e3e3ecdad6bc5704563ec2f459f0334d94e10280a9fe57b13f2673ac16f8",
          "transactionIndex": "0x0",
          "logIndex": "0x17",
          "removed": false
        },
        {
          "address": "0x5dd0fdd19d50c8dfe96243a24e6fb6e6c5ec7a92",
          "topics": [
            "0xddf252ad1be2c89b69c2b068fc378daa952ba7f163c4a11628f55a4df523b3ef",
            "0x0000000000000000000000000000000000000000000000000000000000000000",
            "0x000000000000000000000000016946831aefe6c3998f28957b902affbc7fe75e",
            "0x0000000000000000000000000000000000000000000000000000000000000198"
          ],
          "data": "0x",
          "blockHash": "0x3b05d3b4ee4eff4eb7f02ee5140e53ea4461819f348fb467cb7cebfe1a5345d0",
          "blockNumber": "0xb8e670f",
          "transactionHash": "0x0b54e3e3ecdad6bc5704563ec2f459f0334d94e10280a9fe57b13f2673ac16f8",
          "transactionIndex": "0x0",
          "logIndex": "0x18",
          "removed": false
        },
        {
          "address": "0x046f421fe91c0bacc045406d5a772a1a7b22299b",
          "topics": [
            "0xf208f4912782fd25c7f114ca3723a2d5dd6f3bcc3ac8db5af63baa85f711d5ec",
            "0xdab85ffef2bab5b87ce674a4ce8d83f9191f34833b9e3426e3be70d50bbf07ab",
            "0x0000000000000000000000005dd0fdd19d50c8dfe96243a24e6fb6e6c5ec7a92"
          ],
          "data": "0x000000000000000000000000000000000000000000000000000000000000000000000000000000000000000000000000000000000000000000000000000d89b400000000000000000000000000000000000000000000000000000000016714d70000000000000000000000000000000000000000000000000000000000000198",
          "blockHash": "0x3b05d3b4ee4eff4eb7f02ee5140e53ea4461819f348fb467cb7cebfe1a5345d0",
          "blockNumber": "0xb8e670f",
          "transactionHash": "0x0b54e3e3ecdad6bc5704563ec2f459f0334d94e10280a9fe57b13f2673ac16f8",
          "transactionIndex": "0x0",
          "logIndex": "0x19",
          "removed": false
        },
        {
          "address": "0x38932a93c92b25d001ae14cca8313e1e5dd2e2cd",
          "topics": [
            "0xddf252ad1be2c89b69c2b068fc378daa952ba7f163c4a11628f55a4df523b3ef",
            "0x000000000000000000000000016946831aefe6c3998f28957b902affbc7fe75e",
            "0x000000000000000000000000046f421fe91c0bacc045406d5a772a1a7b22299b"
          ],
          "data": "0x0000000000000000000000000000000000000000000000000000000000fe502b",
          "blockHash": "0x3b05d3b4ee4eff4eb7f02ee5140e53ea4461819f348fb467cb7cebfe1a5345d0",
          "blockNumber": "0xb8e670f",
          "transactionHash": "0x0b54e3e3ecdad6bc5704563ec2f459f0334d94e10280a9fe57b13f2673ac16f8",
          "transactionIndex": "0x0",
          "logIndex": "0x1a",
          "removed": false
        },
        {
          "address": "0x6852f2527a466455b77d08c18fdf52238b723115",
          "topics": [
            "0xddf252ad1be2c89b69c2b068fc378daa952ba7f163c4a11628f55a4df523b3ef",
            "0x000000000000000000000000016946831aefe6c3998f28957b902affbc7fe75e",
            "0x000000000000000000000000046f421fe91c0bacc045406d5a772a1a7b22299b"
          ],
          "data": "0x000000000000000000000000000000000000000000000000000000000093eddf",
          "blockHash": "0x3b05d3b4ee4eff4eb7f02ee5140e53ea4461819f348fb467cb7cebfe1a5345d0",
          "blockNumber": "0xb8e670f",
          "transactionHash": "0x0b54e3e3ecdad6bc5704563ec2f459f0334d94e10280a9fe57b13f2673ac16f8",
          "transactionIndex": "0x0",
          "logIndex": "0x1b",
          "removed": false
        },
        {
          "address": "0x016946831aefe6c3998f28957b902affbc7fe75e",
          "topics": [
            "0xd3c39c472d4a3a9920aec93d2b301c144698a2f61a9f836f23877daad849753e",
            "0x0000000000000000000000000000000000000000000000000000000000000001",
            "0x0000000000000000000000000000000000000000000000000000000000000002"
          ],
          "data": "0x0000000000000000000000000000000000000000000000000000000068aa2435000000000000000000000000f925ec96b9f19ee665b76c0cb847a230992d6948",
          "blockHash": "0x3b05d3b4ee4eff4eb7f02ee5140e53ea4461819f348fb467cb7cebfe1a5345d0",
          "blockNumber": "0xb8e670f",
          "transactionHash": "0x0b54e3e3ecdad6bc5704563ec2f459f0334d94e10280a9fe57b13f2673ac16f8",
          "transactionIndex": "0x0",
          "logIndex": "0x1c",
          "removed": false
        }
      ],
      "logsBloom": "0x04000004000000000008000000200400000000004088004000000000000001001000100000000000000000100048004000000440000000000000c000002400001000000400000000000000480000000000000000000400000010000000084000800800000200000480000002021048000000000000000000000000100010001000200000010000080000090000800010808000010000400000000008002000000200049000000000000001000000008000000100000000000010000800000000000000020000400000000000802000010010000000000011c0000000000260000010080000000000040000004000000004000000018002800440000000000000",
      "type": "0x2",
      "transactionHash": "0x0b54e3e3ecdad6bc5704563ec2f459f0334d94e10280a9fe57b13f2673ac16f8",
      "transactionIndex": "0x0",
      "blockHash": "0x3b05d3b4ee4eff4eb7f02ee5140e53ea4461819f348fb467cb7cebfe1a5345d0",
      "blockNumber": "0xb8e670f",
      "gasUsed": "0x398338",
      "effectiveGasPrice": "0x7d2b7500",
      "from": "0xf925ec96b9f19ee665b76c0cb847a230992d6948",
      "to": "0x016946831aefe6c3998f28957b902affbc7fe75e",
      "contractAddress": null
    }
  ],
  "libraries": [],
  "pending": [],
  "returns": {},
  "timestamp": 1755980855770,
  "chain": 1328,
  "commit": "8a174d7"
}