{
  "transactions": [
    {
      "hash": "0xf2c6145342de778f6b9830c0d369b320c75390db8616cb847fe8556a4276f646",
      "transactionType": "CALL",
      "contractName": null,
      "contractAddress": "0x5dd0fdd19d50c8dfe96243a24e6fb6e6c5ec7a92",
      "function": "multicall(bytes[])",
      "arguments": [
        "[0xf7020405000000000000000000000000333333333333333333333333333333333333333300000000000000000000000044444444444444444444444444444444444444440000000000000000000000000000000000000000000000000000000000000bb8000000000000000000000000000000000000000000000000000000000000003c0000000000000000000000007c15bdf8b6b7d18426ee27123feb95643bd2c0c00000000000000000000000000000000000000001000000000000000000000000]"
      ],
      "transaction": {
        "from": "0xf925ec96b9f19ee665b76c0cb847a230992d6948",
        "to": "0x5dd0fdd19d50c8dfe96243a24e6fb6e6c5ec7a92",
        "gas": "0x14553",
        "value": "0x0",
        "input": "0xac9650d800000000000000000000000000000000000000000000000000000000000000200000000000000000000000000000000000000000000000000000000000000001000000000000000000000000000000000000000000000000000000000000002000000000000000000000000000000000000000000000000000000000000000c4f7020405000000000000000000000000333333333333333333333333333333333333333300000000000000000000000044444444444444444444444444444444444444440000000000000000000000000000000000000000000000000000000000000bb8000000000000000000000000000000000000000000000000000000000000003c0000000000000000000000007c15bdf8b6b7d18426ee27123feb95643bd2c0c0000000000000000000000000000000000000000100000000000000000000000000000000000000000000000000000000000000000000000000000000",
        "nonce": "0x638",
        "chainId": "0x530"
      },
      "additionalContracts": [],
      "isFixedGasLimit": false
    }
  ],
  "receipts": [
    {
      "status": "0x1",
      "cumulativeGasUsed": "0x0",
      "logs": [
        {
          "address": "0x046f421fe91c0bacc045406d5a772a1a7b22299b",
          "topics": [
            "0xdd466e674ea557f56295e2d0218a125ea4b4f0f6f3307b95f85e6110838d6438",
            "0x720d186f93a8e922bb5f9bded4ee597aed5bbe08d203c420f85b8c9b8bf44f56",
            "0x0000000000000000000000003333333333333333333333333333333333333333",
            "0x0000000000000000000000004444444444444444444444444444444444444444"
          ],
          "data": "0x0000000000000000000000000000000000000000000000000000000000000bb8000000000000000000000000000000000000000000000000000000000000003c0000000000000000000000007c15bdf8b6b7d18426ee27123feb95643bd2c0c000000000000000000000000000000000000000010000000000000000000000000000000000000000000000000000000000000000000000000000000000000000",
          "blockHash": "0x21a9b30c0559f52557045a6356784f0a4080323b310c55a16eb96df14bc09d75",
          "blockNumber": "0xb8e3b68",
          "transactionHash": "0xf2c6145342de778f6b9830c0d369b320c75390db8616cb847fe8556a4276f646",
          "transactionIndex": "0x2",
          "logIndex": "0x4",
          "removed": false
        }
      ],
      "logsBloom": "0x00000040000000000000000000000002000000004000000000000000000000000200000000000000000000000000000000000000000004000000000000000000008000000000000000000000000000000000000000000000000000000000000080000000000080000000000000000000000000000000000000000000000000000000000040000008000000000000000000000001000000000000000000200000000000000000000000000000000000000000000000000000000000000000000000000000000000000000000000000040000000000000001000000000000000000000000000000000000000000000000000000000100000000000000000000000",
      "type": "0x2",
      "transactionHash": "0xf2c6145342de778f6b9830c0d369b320c75390db8616cb847fe8556a4276f646",
      "transactionIndex": "0x2",
      "blockHash": "0x21a9b30c0559f52557045a6356784f0a4080323b310c55a16eb96df14bc09d75",
      "blockNumber": "0xb8e3b68",
      "gasUsed": "0xeb88",
      "effectiveGasPrice": "0x8a486400",
      "from": "0xf925ec96b9f19ee665b76c0cb847a230992d6948",
      "to": "0x5dd0fdd19d50c8dfe96243a24e6fb6e6c5ec7a92",
      "contractAddress": null
    }
  ],
  "libraries": [],
  "pending": [],
  "returns": {},
  "timestamp": 1755976375026,
  "chain": 1328,
  "commit": "8a174d7"
}