{
  "transactions": [
    {
      "hash": "0xad7c8cc78fffdd9a0d8a0c0678cc67c92708981adf22611ba799f253bdf05f3b",
      "transactionType": "CALL",
      "contractName": null,
      "contractAddress": "0x046f421fe91c0bacc045406d5a772a1a7b22299b",
      "function": "initialize((address,address,uint24,int24,address),uint160)",
      "arguments": [
        "(0x1111111111111111111111111111111111111111, 0x2222222222222222222222222222222222222222, 3000, 60, 0x7C15BdF8B6B7D18426EE27123fEB95643BD2c0c0)",
        "79228162514264337593543950336"
      ],
      "transaction": {
        "from": "0xf925ec96b9f19ee665b76c0cb847a230992d6948",
        "to": "0x046f421fe91c0bacc045406d5a772a1a7b22299b",
        "gas": "0x12a2d",
        "value": "0x0",
        "input": "0x6276cbbe000000000000000000000000111111111111111111111111111111111111111100000000000000000000000022222222222222222222222222222222222222220000000000000000000000000000000000000000000000000000000000000bb8000000000000000000000000000000000000000000000000000000000000003c0000000000000000000000007c15bdf8b6b7d18426ee27123feb95643bd2c0c00000000000000000000000000000000000000001000000000000000000000000",
        "nonce": "0x637",
        "chainId": "0x530"
      },
      "additionalContracts": [],
      "isFixedGasLimit": false
    }
  ],
  "receipts": [
    {
      "status": "0x1",
      "cumulativeGasUsed": "0x0",
      "logs": [
        {
          "address": "0x046f421fe91c0bacc045406d5a772a1a7b22299b",
          "topics": [
            "0xdd466e674ea557f56295e2d0218a125ea4b4f0f6f3307b95f85e6110838d6438",
            "0xdd996e13d777497941041995939b31a3477f344fea70177215b29f61a3c31cb5",
            "0x0000000000000000000000001111111111111111111111111111111111111111",
            "0x0000000000000000000000002222222222222222222222222222222222222222"
          ],
          "data": "0x0000000000000000000000000000000000000000000000000000000000000bb8000000000000000000000000000000000000000000000000000000000000003c0000000000000000000000007c15bdf8b6b7d18426ee27123feb95643bd2c0c000000000000000000000000000000000000000010000000000000000000000000000000000000000000000000000000000000000000000000000000000000000",
          "blockHash": "0x1952c67b7b5428c1ef0a65730e19ec3ecf7ca206ada61ecf41acbc826bc2add2",
          "blockNumber": "0xb8e3a80",
          "transactionHash": "0xad7c8cc78fffdd9a0d8a0c0678cc67c92708981adf22611ba799f253bdf05f3b",
          "transactionIndex": "0x0",
          "logIndex": "0x0",
          "removed": false
        }
      ],
      "logsBloom": "0x00000000000000000000000000000000000000004000000000000000000000000000000000000000000000000000000000080000000000000000000020000000000000000000000000000000000000000000000000000000000000000000000080000000000000000000000000000000000000000000000000000000000200000000000000000008000000000000000000000001000000000000000000200000240000000000000000004000100000000000000000000000000000000000000000000000000000000000000000000000000000000000001000000000000000000000000000000000000000000000000000000800000000000000000000004000",
      "type": "0x2",
      "transactionHash": "0xad7c8cc78fffdd9a0d8a0c0678cc67c92708981adf22611ba799f253bdf05f3b",
      "transactionIndex": "0x0",
      "blockHash": "0x1952c67b7b5428c1ef0a65730e19ec3ecf7ca206ada61ecf41acbc826bc2add2",
      "blockNumber": "0xb8e3a80",
      "gasUsed": "0xcbe2",
      "effectiveGasPrice": "0x7d2b7500",
      "from": "0xf925ec96b9f19ee665b76c0cb847a230992d6948",
      "to": "0x046f421fe91c0bacc045406d5a772a1a7b22299b",
      "contractAddress": null
    }
  ],
  "libraries": [],
  "pending": [],
  "returns": {},
  "timestamp": 1755976278757,
  "chain": 1328,
  "commit": "8a174d7"
}