{
  "transactions": [
    {
      "hash": "0xbb45e4a224136e68e7930c7cc85c1291eca317cfde836f375920fddedaa225d8",
      "transactionType": "CALL",
      "contractName": null,
      "contractAddress": "0x016946831aefe6c3998f28957b902affbc7fe75e",
      "function": "createMarket(address,address,address,uint256,uint256,string)",
      "arguments": [
        "0xf925EC96b9F19EE665b76c0cB847a230992d6948",
        "0x80D32F6004f51b65d89abeCf0F744d22F491306f",
        "0xf925EC96b9F19EE665b76c0cB847a230992d6948",
        "100000000",
        "1756585600",
        "Test Market: Will ETH reach $5000 by end of year?"
      ],
      "transaction": {
        "from": "0xf925ec96b9f19ee665b76c0cb847a230992d6948",
        "to": "0x016946831aefe6c3998f28957b902affbc7fe75e",
        "gas": "0x5d9a7",
        "value": "0x0",
        "input": "0x997150de000000000000000000000000f925ec96b9f19ee665b76c0cb847a230992d694800000000000000000000000080d32f6004f51b65d89abecf0f744d22f491306f000000000000000000000000f925ec96b9f19ee665b76c0cb847a230992d69480000000000000000000000000000000000000000000000000000000005f5e1000000000000000000000000000000000000000000000000000000000068b35e8000000000000000000000000000000000000000000000000000000000000000c0000000000000000000000000000000000000000000000000000000000000003154657374204d61726b65743a2057696c6c2045544820726561636820243530303020627920656e64206f6620796561723f000000000000000000000000000000",
        "nonce": "0x660",
        "chainId": "0x530"
      },
      "additionalContracts": [],
      "isFixedGasLimit": false
    }
  ],
  "receipts": [
    {
      "status": "0x1",
      "cumulativeGasUsed": "0x0",
      "logs": [
        {
          "address": "0x016946831aefe6c3998f28957b902affbc7fe75e",
          "topics": [
            "0x0bc2a35bcd8dc65c0c53de105d719e72b6e7c46f7fce1bb1e82db4546184c48e",
            "0x0000000000000000000000000000000000000000000000000000000000000001"
          ],
          "data": "0x0000000000000000000000000000000000000000000000000000000068aa240d000000000000000000000000f925ec96b9f19ee665b76c0cb847a230992d69480000000000000000000000000000000000000000000000000000000000000060000000000000000000000000000000000000000000000000000000000000003154657374204d61726b65743a2057696c6c2045544820726561636820243530303020627920656e64206f6620796561723f000000000000000000000000000000",
          "blockHash": "0x14e5b83b73a2f9e9d4b257230b4deed60434fc50df59d0f6885af24dbc23193c",
          "blockNumber": "0xb8e66aa",
          "transactionHash": "0xbb45e4a224136e68e7930c7cc85c1291eca317cfde836f375920fddedaa225d8",
          "transactionIndex": "0x2",
          "logIndex": "0x5",
          "removed": false
        }
      ],
      "logsBloom": "0x00000000000000000000000000000000000000000000000001000000000000001000000000000000000000000000000000000040000000000000000000040000000000000000000000000000000000000000000000040000000000000008000000000000000000000000000000000000000000000000000000000000000000000000000000000000000000000000000000000000000000000000000000000000000000000000000000000000000000000000000000000000000000000008000000000000000000000000000000000020000000000000000000000000000040000000000000000000000000000000000000000000000000000000000000000000",
      "type": "0x2",
      "transactionHash": "0xbb45e4a224136e68e7930c7cc85c1291eca317cfde836f375920fddedaa225d8",
      "transactionIndex": "0x2",
      "blockHash": "0x14e5b83b73a2f9e9d4b257230b4deed60434fc50df59d0f6885af24dbc23193c",
      "blockNumber": "0xb8e66aa",
      "gasUsed": "0x43c47",
      "effectiveGasPrice": "0x7d2b7500",
      "from": "0xf925ec96b9f19ee665b76c0cb847a230992d6948",
      "to": "0x016946831aefe6c3998f28957b902affbc7fe75e",
      "contractAddress": null
    }
  ],
  "libraries": [],
  "pending": [],
  "returns": {},
  "timestamp": 1755980813556,
  "chain": 1328,
  "commit": "8a174d7"
}